:060000000A128A110C280F
:10000800FE00030EF2000A08F3000A128A11632D9B
:100018000A128A110F2883120313BB01BC01BD0108
:0800280083010A128A11462B24
:10020000FF1B0A2983137F1883170008840A031928
:10021000FF0A08007F087F398A000408840A03194E
:10022000FF0A8200013400340A340034643400349C
:10023000E8340334103427342D342D342D342D3448
:100240002D342D342D342D342D342D342D342D34A6
:100250002D342D342D342D342D342D342D342D3496
:100260002D342D342D342D342D342D342D342D3486
:100270002D3420344D3445344E34DA3420342D348A
:100280002D342D342D342D342D342D342D342D3466
:100290002D342D342D342D342D342D342D342D3456
:1002A0002D342D342D342D342D342D342D342D3446
:1002B0002D342D342D342D3420340A340D340034B3
:1002C00044346934673469347434653420346534B3
:1002D0006E342034733475342034743465346334AC
:1002E0006C34613464346F34203465346C342034BD
:1002F0006E34FA346D34653472346F3420346434BF
:10030000653420346C3461342034613463346334B4
:100310006934F3346E3420347134753465342034E8
:100320006434653473346534613420347234653434
:1003300061346C3469347A346134723420340A3470
:100340000D3400344F34703463346934F3346E3414
:1003500020346E346F3420347634E1346C346934B4
:10036000643461342E34203445346C346934673459
:100370006134203475346E342034763461346C3416
:100380006F347234203465346E34743472346534AE
:1003900020343134203479342034323420340A3457
:1003A0000D34003445346C342034763461346C348C
:1003B0006F3472342034643465346C3420347034D7
:1003C0006F34743465346E3463346934F3346D34AB
:1003D0006534743472346F342034653473343A3491
:1003E0002034003431342E3420344C3465346534B8
:1003F0007234203465346C34203470346F34743487
:1004000065346E3463346934F3346D346534743474
:1004100072346F3420340A340D34003449346E346D
:1004200067347234653473346534203475346E3413
:10043000613420346F34703463346934F3346E348F
:100440003A34203420342034003432342E342034F2
:1004500045346E3476346934613472342034413436
:10046000533443344934493420340A340D3400348D
:100470004334613472347034653420344434693424
:1004800065346D3420340A340D3400343234203471
:100490000A340D340034313420340A340D3400343D
:1004A0000A340D34003425346434003483120313C9
:1004B000B5002A30B0002B2B253036060319612AEF
:1004C000622A6C2A350884003608831380000130C4
:1004D000AC002C08B5072B2BB1012908AD0028086A
:1004E000AC00A80A0319A90A2D08FF002C088400F3
:1004F0000A128A1100210A128A11B600AE00AF0159
:100500002F08003A0319852A2B2B2E08003A0319CD
:10051000412B643A0319902A0D3A0319902A2B2B88
:100520003008840083130008B300840A0008B40074
:100530000230AC002C08B007B41F9F2AA02AA92AB9
:100540000330AC002C08B104B309B409B30A031991
:10055000B40AB601B60A3608AC002C07123E840075
:1005600081300318013EFF000A128A1100210A128D
:100570008A11AD000A128A1100210A128A11AE00F6
:100580002E083402031DC62A2D0833020318C92A77
:10059000CA2ACB2AD52A0130AC002C08B607053070
:1005A0003606031DD42AD52AAB2A3108033903198C
:1005B000DA2ADB2AE42A350884002D3083138000F0
:1005C0000130AC002C08B5073608B200222B0A30E7
:1005D000A3000030A4003208AC002C07123E8400B7
:1005E00081300318013EFF000A128A1100210A120D
:1005F0008A11F4000A128A1100210A128A11F500E8
:100600003408F7003308F6000A128A11BD240A12D2
:100610008A11750883120313A6007408A5000A1234
:100620008A1103250A128A11831203132308303E0C
:10063000B600350884003608831380000130AC0012
:100640002C08B507FF30AC002C08B207320A031D96
:100650002A2B2B2BE72A2908AD002808AC00A80A72
:100660000319A90A2D08FF002C0884000A128A1118
:1006700000210A128A11B6003608031D402B412BB7
:100680005C2A350884008313800108000A128A114D
:1006900075240A128A111C30F8008130F9000A1200
:1006A0008A1119240A128A116030F8008130F90089
:1006B0000A128A1119240A128A11F230F8008130C4
:1006C000F9000A128A1119240A128A112530F80039
:1006D0008230F9000A128A1119240A128A110E3086
:1006E000F8008230F9000A128A1119240A128A11BC
:1006F000831203133B083C0403197F2B802B782BB8
:1007000031303B063C04031D862B872BE12B4B30FD
:10071000F8008230F9000A128A1119240A128A118B
:10072000C330831203139F059F149F18982B992B96
:10073000952B1E08B700B8013708B9003808BA0071
:1007400039088600043083120313B8003D30B70027
:10075000B70BA82BB80BA82B533083120313A80098
:100760008230A9003A08AB003908AA003D300A12CD
:100770008A1156220A128A11D230F8008130F9000B
:100780000A128A1119240A128A113D30F800003029
:10079000F9000A128A1119240A128A115030F8003D
:1007A0008230F9000A128A1119240A128A11503073
:1007B000F8008230F9000A128A1119240A128A11EB
:1007C000162C32303B063C04031DE72BE82B042C8F
:1007D0004630F8008230F9000A128A1119240A12F0
:1007E0008A113830F8008230F9000A128A1119246F
:1007F0000A128A115030F8008230F9000A128A1168
:1008000019240A128A11162CA230F8008130F9003E
:100810000A128A1119240A128A115030F800823003
:10082000F9000A128A1119240A128A110A128A116D
:100830000C287808F4007908F5000A128A113F257F
:100840000A128A11750883120313A4007408A30006
:10085000213083120313A1007530A000A00B2E2CB1
:10086000A10B2E2C332C83120313A501A601662C99
:10087000043083120313A1003D30A000A00B3E2CD6
:10088000A10B3E2C831203130C1E472C482C602C0A
:1008900025087807A1007908A0000318A00AA51F61
:1008A000522CA003831203132008A2002208FF0089
:1008B000210884000A128A1100210A128A11990063
:1008C0000130A5070318A60A0030A6072608803ABB
:1008D000A0002408803A2002031D702C2308250262
:1008E000031C732C742C382C080083160317880102
:1008F000890183160313860188018312031388017B
:10090000831603130F088F3940388F000F14181205
:1009100018158316031787151930831603139900CA
:100920009A018312031398171813181683160313CA
:100930009816831203138C12831603138C160B174D
:100940008B178316031708148814831603130514D2
:100950008514831203131F083F3980389F005330DA
:10096000F400F40BB12C831603139F131F129F1274
:10097000831203131F140C13080083120313A00126
:10098000A101740875040319C62CC72CFE2CA20102
:10099000A20AD52C01300310F40DF50DFF3E031D06
:1009A000CB2C0130F8007808A207F51FD82CD92CE1
:1009B000CA2C01300310A00DA10DFF3E031DDA2C3F
:1009C00075087702031DE62C74087602031CE92CD7
:1009D000EA2CF12C7408F6027508031CF703F702E1
:1009E000201401300310F50CF40CFF3E031DF22C13
:1009F0000130A202031DFD2CFE2CD92C2108F5008C
:100A00002008F400080083120313230824040319A8
:100A10000A2D0B2D3A2DA701A70A192D013003101D
:100A2000A30DA40DFF3E031D0F2D0130F900790821
:100A3000A707A41F1C2D1D2D0E2D24082602031D03
:100A4000232D23082502031C262D272D2D2D2308B9
:100A5000A5022408031CA603A60201300310A40C5F
:100A6000A30CFF3E031D2E2D0130A702031D392DBF
:100A70003A2D1D2D2608A4002508A300080074089F
:100A8000F6007508F7004A2D0130F6070318F70A3B
:100A90000030F707770883120313FF0076088400FD
:100AA0000A128A1100210A128A11003A031D592DD7
:100AB0005A2D442D74087602F4007508031C750A3B
:100AC0007702F5000800831203138C1E682D692D30
:100AD000722D1A0888000808F000F1017008BB00A8
:100AE0007108BC0073088A00720E8300FE0E7E0E31
:020AF0000900FB
:08400000FF3FFF3FFF3FFF3FC0
:04400E00D420FF3F7C
:00000001FF
